{
  "contractName": "Polling",
  "abi": [
    {
      "inputs": [
        {
          "internalType": "uint256",
          "name": "firstVal",
          "type": "uint256"
        }
      ],
      "payable": false,
      "stateMutability": "nonpayable",
      "type": "constructor"
    },
    {
      "constant": false,
      "inputs": [
        {
          "internalType": "uint256",
          "name": "val",
          "type": "uint256"
        }
      ],
      "name": "setVal",
      "outputs": [],
      "payable": false,
      "stateMutability": "nonpayable",
      "type": "function"
    },
    {
      "constant": true,
      "inputs": [],
      "name": "getVal",
      "outputs": [
        {
          "internalType": "uint256",
          "name": "",
          "type": "uint256"
        }
      ],
      "payable": false,
      "stateMutability": "view",
      "type": "function"
    }
  ],
  "bytecode": "0x608060405234801561001057600080fd5b506040516101203803806101208339818101604052602081101561003357600080fd5b8101908080519060200190929190505050806000819055505060c68061005a6000396000f3fe6080604052348015600f57600080fd5b506004361060325760003560e01c80633d4197f0146037578063e1cb0e52146062575b600080fd5b606060048036036020811015604b57600080fd5b8101908080359060200190929190505050607e565b005b60686088565b6040518082815260200191505060405180910390f35b8060008190555050565b6000805490509056fea265627a7a72315820529f9f71ac4967b84a6c9112815e233660dbfe2caf303188cac276820f70d8f964736f6c634300050d0032",
  "source": "pragma solidity ^0.5.0;\n\ncontract Polling {\n    uint testVariable;\n\n    constructor (uint firstVal) public{\n        testVariable = firstVal;\n    }\n\n    function setVal (uint val) public {\n        testVariable = val;\n    }\n\n    function getVal() public view returns(uint){\n        return testVariable;\n    }\n}",
  "sourcePath": "/Users/saikishunsuke/work-space/blockchain/solidity/truffle/voteApp/contracts/Polling.sol",
  "compiler": {
    "name": "solc",
    "version": "0.5.13+commit.5b0b510c.Emscripten.clang"
  },
  "schemaVersion": "3.0.16",
  "updatedAt": "2019-11-22T06:47:44.628Z",
  "devdoc": {
    "methods": {}
  },
  "userdoc": {
    "methods": {}
  }
}